:030000000201AF4B
:0100030032CA
:0100130032BA
:01001B0032B2
:0100230032AA
:03002B00020118B7
:10002E00C00078B10000D8FCD00022C000C0017919
:10003E002D78A6D8FED9FADAF6D001D00022D2B3A6
:10004E0012002EC2B322A2E792B7A2E692B6A2E5A2
:10005E0092B5A2E492B412004C12002EA2E392B713
:10006E00A2E292B6A2E192B5A2E092B412004C22A4
:10007E00D2B2020054C2B2020054C2B374331200A0
:10008E008374331200837432120083742812008337
:10009E00740C1200837401120083C0027A021200E3
:1000AE0039D00222E493600612007EA380F6224429
:1000BE00404480020083C0E0E8C4540F4430120074
:1000CE007EE8540F443012007ED0E02254494D4554
:1000DE00203A00E58954F04401F589758CEA758A59
:1000EE00E875F4EA75F2E8D2A9D28C22B291B28CFC
:1000FE003275C80075CDA975CC9A75CBA975CA9AFB
:10010E00E4F530F531D2ADD2CA22C2CFB290C0E002
:10011E00C0D00530E53070020531E530B4E853E566
:10012E0031B4034ED200B291E4F530F531E532B47C
:10013E0059077400D4F53280072401D4F532803289
:10014E00E533B4591F7400D4F533E5348000B4128E
:10015E00077401D4F534801AB41110B203740CD4A0
:10016E00F534800E2401D4F53380072401D4F53400
:10017E008000E533B536218000E534B5351A8000B0
:10018E00200302800520060780092006068000B2A3
:10019E00918000D0D0D0E03280F9416C61726D3A1E
:1001AE000075817F1200E11200FF75E60075E70011
:1001BE00D2AF120088C0E07401141200BFD0E0C0AC
:1001CE0083C082C0E09000DA1200B2D0E0D082D0BC
:1001DE0083D200753255753300753412753512752C
:1001EE003601208116C0027A32120039D0022081E7
:1001FE000A3081FD2410D4F536800020C523C002BC
:10020E007A32120039D00220C51730C5FDC2CAE4B9
:10021E00F530F531753259753359753401D2CA80BE
:10022E007D20851BC0027A32120039D00220850F44
:10023E003085FDE534B412437401D4F534805F206B
:10024E00821BC0027A32120039D00220820F308215
:10025E00FDE533B459527400D4F533807B20A11DD3
:10026E00C0027A32120039D00220A11130A1FDE570
:10027E0036B4592D7400D4F536805D804020A055DB
:10028E00C0027A32120039D00220A04930A0FDE51A
:10029E0035B412357401D4F535803D0202090202DF
:1002AE00E62401D4F53680302401D4F53380292498
:1002BE0001D4F53580222401D4F534801BB411F617
:1002CE00B203740CD4F534800FB411E3B206740C7F
:1002DE00D4F53580033000C3C200C0E07407141299
:1002EE0000BFD0E0C000A8341200C4D000C0E0743B
:1002FE0009141200BFD0E0C0E0743A12007ED0E0C4
:10030E00C0E0740A141200BFD0E0C000A83312007F
:10031E00C4D000C0E0740C141200BFD0E0C0E07472
:10032E003A12007ED0E0C0E0740D141200BFD0E08F
:10033E00C000A8321200C4D000C0E0740114120034
:10034E00BDD0E0C083C082C0E09001A81200B2D040
:10035E00E0D082D083C0E07408141200BDD0E0C09B
:10036E0000A8351200C4D000C0E0740A141200BDFB
:10037E00D0E0C0E0743A12007ED0E0C0E0740B14FE
:10038E001200BDD0E0C000A8361200C4D000200379
:10039E002EC0E07410141200BFD0E0C0E0745012F2
:1003AE00007ED0E0800020062CC0E0740D141200F8
:1003BE00BDD0E0C0E0745012007ED0E00201F0C06B
:1003CE00E07410141200BFD0E0C0E0744112007E41
:1003DE00D0E00203B4C0E0740D141200BDD0E0C032
:0B03EE00E0744112007ED0E00201F03C
:00000001FF
