:030000000203ED0B
:03002B000203D5F8
:10002E00C0E0C0D0C000C001C002E4F538F539F51B
:10003E003AF53BF53C7A20E533A2E779047830E6D1
:10004E0033F608D9FA79057838E636D4F608D9F9B0
:10005E00DAE5D002D001D000D0D0D0E022C0E0C08E
:10006E00D0C000C001C002E4F538F539F53AF53BD1
:10007E00F53C7A20E533A2E779047830E633F608CA
:10008E00D9FA79057838C0D0E6243320E70224D097
:10009E0020E30224FDD0D033F608D9EADAD6D00216
:1000AE00D001D000D0D0D0E022C0E0C0D0C000C07F
:1000BE0001C0027A207905C3783CE613C0D030E740
:1000CE000224D030E30224FDF618D0D0D9EC790406
:1000DE007833E613F618D9FADADBD002D001D00065
:1000EE00D0D0D0E022C0E0C0D0E5302534F530E5E8
:1000FE00313535F531E5323536F532E5333537F50F
:10010E0033D0D0D0E022C0E0C0D0C3E5309534F576
:10011E0030E5319535F531E5329536F532E53395E5
:10012E0037F533D0D0D0E022C0E0C0D0C3E5309553
:10013E0034E5319535E5329536E53395379200D075
:10014E00D0D0E022C0E0C0D0C3E5349530E535957F
:10015E0031E5369532E53795339200D0D0D0E02296
:10016E00C0E0C0D0C200C3E53495307014E53595BB
:10017E0031700EE53695327008E53795337002D240
:10018E0000D0D0D0E02212016E20000302015222D4
:10019E0012016E20000302013622C0E0C0F0C0D072
:1001AE00C000C001C002C003E5308534F0A4F8A938
:1001BE00F0E5318534F0A429F9E435F0FAE530851F
:1001CE0035F0A429F9E5F03AFAE433FBE53285344B
:1001DE00F0A42AFAE5F03BFBE5318535F0A42AFAC6
:1001EE00E5F03BFBE5308536F0A42AFAE5F03BFB63
:1001FE00E5338534F0A42BFBE5328535F0A42BFBDB
:10020E00E5318536F0A42BFBE5308537F0A42BFBCA
:10021E008B338A3289318830D003D002D001D0009E
:10022E00D0D0D0F0D0E022C0E0C0D0C000C001C01D
:10023E0002C003C0047C20E4F8F9FAFBC3E53033B6
:10024E00F530E53133F531E53233F532E53333F55B
:10025E0033E833F8E933F9EA33FAEB33FBC3E895C5
:10026E0034E99535EA9536EB95374013E89534F831
:10027E00E99535F9EA9536FAEB9537FB433001DC13
:10028E00BBD004D003D002D001D000D0D0D0E02219
:10029E0085303485313585323685333722E530C5A4
:1002AE0034F530E531C535F531E532C536F532E593
:0602BE0033C537F53322C1
:1002C400C00078B10000D8FCD00022C000C0017981
:1002D4002D78A6D8FED9FADAF6D001D00022D2B30E
:1002E4001202C4C2B322A2E792B7A2E692B6A2E572
:1002F40092B5A2E492B41202E21202C4A2E392B74B
:10030400A2E292B6A2E192B5A2E092B41202E22273
:10031400D2B20202EAC2B20202EAC2B374331203D4
:10032400197433120319743212031974281203193D
:10033400740C1203197401120319C0027A02120216
:10034400CFD00222E4936006120314A380F6224461
:10035400404480020319C0E0E8C4540F443012033F
:1003640014E8540F4430120314D0E0224361706146
:10037400636974616E636520286E46293A202020E3
:10038400004E6F207369676E616C2020202020204E
:1003940000250045525200C000A83C12035AD00068
:1003A400C000A83B12035AD000C000A83A12035A56
:1003B400D000C000A83912035AD000C000A83812D7
:1003C400035AD0002275C80075CB0075CA00D2AD9F
:1003D40022C2CFC0E0053DE53D7002053ED0E032CB
:1003E4001203C912031ED2AF2275817F1203E4D215
:1003F40080C0E0740114120355D0E0C083C082C0F1
:10040400E0900370120348D0E0D082D083C2CA7552
:10041400CC0075CD00753D00753E00C2CFD2CAE553
:100424003E54FE70342080F7E53E54FE702B30803D
:10043400F7C2CA75CC0075CD00753D00753E00C28B
:10044400CFD2CAE53E54FE70102080F7E53E54FE3C
:1004540070073080F7C2CA801FC0E0740114120311
:1004640053D0E0C083C082C0E0900385120348D01B
:10047400E0D082D083020411E5CC45CD453D453E14
:1004840060D785CC3085CD31853D32853E3375349A
:100494002D7535007536007537001201A875346462
:1004A4007535007536007537001202357534907550
:1004B40035007536007537001201A875346475353A
:1004C400007536007537001202357534FC75350336
:1004D400753600753700120235753464753500754C
:1004E40036007537001201A8C0E0740114120353DA
:1004F400D0E012002E12039B30A02130A10C3085D5
:100504000C30820C30810F30C50F02058E0205FCC1
:1005140002066A0207650206D802074612029E75A1
:10052400306475310075320075330012011475346E
:10053400647535007536007537001201A87534648A
:10054400753500753600753700120235C0E0740D3C
:1005540014120353D0E012002EC000A83812035A1C
:10056400D000C0E0740F14120353D0E0C083C082E3
:10057400C0E0900395120348D0E0D082D083C0023B
:100584007A641202CFD00202076512029E753010FF
:100594007531277532007533001201147534647592
:1005A40035007536007537001201A875341075359D
:1005B40027753600753700120235C0E0740D141229
:1005C4000353D0E012002EC000A83812035AD00002
:1005D400C0E0740F14120353D0E0C083C082C0E0A3
:1005E400900395120348D0E0D082D083C0027A648D
:1005F4001202CFD00202076512029E7530A0753137
:100604008675320175330012011475346475350032
:100614007536007537001201A87534A075358675D6
:100624003601753700120235C0E0740D14120353FD
:10063400D0E012002EC000A83812035AD000C0E047
:10064400740F14120353D0E0C083C082C0E090033F
:1006540095120348D0E0D082D083C0027A6412029B
:10066400CFD00202076512029E75306075315B754A
:100674003203753300120114753464753500753610
:10068400007537001201A875346075355B75360343
:10069400753700120235C0E0740D14120353D0E014
:1006A40012002EC000A83812035AD000C0E0740F04
:1006B40014120353D0E0C083C082C0E090039512AB
:1006C4000348D0E0D082D083C0027A641202CFD033
:1006D4000202076512029E75304075314275320F71
:1006E4007533001201147534647535007536007560
:1006F40037001201A875344075354275360F7537C9
:1007040000120235C0E0740D14120353D0E012003D
:100714002EC000A83812035AD000C0E0740F14127F
:100724000353D0E0C083C082C0E090039512034815
:10073400D0E0D082D083C0027A641202CFD0020209
:100744000765C0E0740D14120353D0E0C083C08267
:10075400C0E0900397120348D0E0D082D083020710
:040764006502041115
:00000001FF
